:100000000C9451040C946E040C946E040C946E04C5
:100010000C946E040C946E040C946E040C946E0498
:100020000C946E040C946E040C945C180C94721670
:100030000C94AA290C946E040C946E040C946E0417
:100040000C946E040C946E040C946E040C946E0468
:100050000C946E040C9427130C946E040C946E0490
:100060000C946E040C946E040C946E040C946E0448
:100070000C946E040C946E040C946E040C946E0438
:100080000C946E040C946E040C946E040C946E0428
:100090000C946E040C946E040C946E040C946E0418
:1000A0000C946E040C946E040C946E040001010117
:1000B0000101010101010202020202020202020325
:1000C00003030303030303040404040404040505F5
:1000D00005050506060606060707070707080808B8
:1000E00008090909090A0A0A0B0B0B0C0C0C0D0D67
:1000F0000D0E0E0E0F0F0F101011111112121313FF
:100100001414151516161717181819191A1A1B1B77
:100110001C1D1D1E1E1F20202122222324242526D3
:1001200026272829292A2B2C2D2D2E2F303132320B
:10013000333435363738393A3B3C3D3E3F40414217
:10014000434445464748494A4C4D4E4F50515354FD
:10015000555658595A5B5D5E5F61626465666869B1
:100160006B6C6D6F7072737577787A7B7D7E808231
:10017000838587888A8C8E8F91939596989A9C9E7A
:10018000A0A2A3A5A7A9ABADAFB1B3B5B7BABCBE8A
:10019000C0C2C4C6C9CBCDCFD1D4D6D8DBDDDFE257
:1001A000E4E7E9EBEEF0F3F5F8FAFDFFFFAA7F557F
:1001B000402223252628292A2C2D2F30323335366C
:1001C000383A3B3D3E4042434547494A4C4E5051E8
:1001D000535557595A5C5E6062646668696B6D6F0F
:1001E00071737577797B7D7F81838587898A8C8E12
:1001F00090929496989A9C9E9FA1A3A5A7A8AAAC1A
:10020000AEAFB1B3B4B6B8B9BBBCBEBFC1C2C3C553
:10021000C6C7C9CACBCCCDCED0D1D2D2D3D4D5D6F5
:10022000D7D7D8D9D9DADADBDBDBDCDCDCDCDCDD28
:10023000DDDDDDDCDCDCDCDCDBDBDBDADAD9D9D80C
:10024000D7D7D6D5D4D3D2D2D1D0CECDCCCBCAC9A4
:10025000C7C6C5C3C2C1BFBEBCBBB9B8B6B4B3B1D3
:10026000AFAEACAAA8A7A5A3A19F9E9C9A9896946E
:1002700092908E8C8A89878583817F7D7B79777543
:1002800073716F6D6B6968666462605E5C5A595722
:10029000555351504E4C4A4947454342403E3D3BE1
:1002A0003A3836353332302F2D2C2A29282625236B
:1002B0002229002B000255D75C015500001E0014B6
:1002C0000004001D00045551001F001A0015001BFA
:1002D00000085528002000090016000600356A2C89
:1002E00000210013001700070013505200220005E0
:1002F000000A001900000050002F00380000002DF7
:100300000000004F003000310000002E000000AC63
:100310000023000D000E0010000000AB0024000FB1
:100320000011000B001150A900250018000800362C
:10033000004C632C0026001C000C0037001855AE42
:100340000027003300120034001455AA002A0028A8
:10035000000255D85C1155000044002A000100013C
:1003600000010000003A0001000100085D010001E9
:10037000003B00F500F2000100010001003C00F02C
:1003800000F100F600010001003D00F400F300FB65
:1003900000105001003E00F900FA00FC00000001CE
:1003A0000001000100000001000000010001000147
:1003B0000000000100000001003F005200510063F6
:1003C00000000001004000240021001E0012500126
:1003D000004100250022005A006200010042002670
:1003E000002300200001000100430025022E0231FD
:1003F000002E000100450058002A00010001000005
:1004000000010001000100010001000000010014D2
:100410000004001D000100010001001A0016001B6D
:1004200000010001000100080007000600010001B2
:10043000000100150009001900105001000100170B
:10044000000A000500000001000100010000000199
:100450000000000100010001000000010000000197
:100460000001001C000B0011000000010001001839
:10047000000D0010000100010001000C000E000141
:100480000001000100010012000F00010001000145
:100490000001001300330001000100010001000110
:1004A0000001000100010000000100010001000145
:1004B00000010000000100010050000100010001E6
:1004C000000100350051002F00010001000100343F
:1004D0000052002F0201000100010036024F0026E9
:1004E000021450010001000100330001000000016E
:1004F00000010001000000010000000100010001F6
:1005000000000001000000010001000100330201B1
:100510000000000100010037024F042702105001C3
:1005200000010034025104300201000100010035D5
:1005300002500430000100010001000100520401DA
:1005400000010001000100010001000100010000A4
:100550000001000100010001000100000001000194
:100560000001000100010001000100010001000183
:10057000000100010001002102200222020100010D
:1005800000010001001E021F0210500100010001C5
:100590000001000100000001000100010000000155
:1005A0000000000100010001000000010000000146
:1005B0000001000100010001000000010001000134
:1005C0000023022402135001000100010025020152
:1005D0000001000100010001000100010001000113
:1005E0000001000100010001000100010001000103
:1005F00000010001000100000000047F3F1F643281
:1006000014643214783C1E1E140A050A000000000F
:10061000000306B200080001000000A80008000264
:10062000000200A0001400030057494E5553420039
:100630000000000000000000008400040007002A01
:100640000044006500760069006300650049006EA3
:100650000074006500720066006100630065004779
:10066000005500490044007300000050007B003931
:100670000044004200370046003100460044002D8F
:100680000037004500370041002D003400300030B5
:100690000038002D0039003300360042002D0036AE
:1006A0000042004100360043003100390041003370
:1006B000003000380063007D00000000001B0301D3
:1006C000636F6E6669677572652E6572676F646FBA
:1006D000782D657A2E636F6D0005010902A10185F1
:1006E000020901A100050919012905150025019537
:1006F0000575018102950175038101050109300924
:10070000311581257F9502750881060938158125E7
:100710007F950175088106050C0A38021581257F31
:10072000950175088106C0C005010980A1018503F6
:100730001A81002A83001601002603009501751016
:100740008100C0050C0901A10185041A01002A9C41
:1007500002160100269C02950175108100C005015A
:100760000906A1018505050719E029E715002501FE
:100770009508750181020507190029EF150025016B
:1007800095F0750181020508190129059505750186
:100790009102950175039101C005010906A10105AA
:1007A0000719E029E71500250195087501810295D3
:1007B00001750881010507190029FF150026FF00B2
:1007C000950675088100050819012905950575012B
:1007D0009102950175039101C009025200030100C5
:1007E000A0FA090400000103010100092111010020
:1007F000012240000705810308000A0904010001E5
:100800000300000009211101000122C00007058238
:100810000320000A0904020002FF0000000705830C
:100820000340000507050403400005120110020003
:10083000000008EDFE07130100010203010403306C
:1008400000000016034500720067006F0064006F2F
:10085000007800200045005A00000008035A0053A9
:10086000004100000004030904050F3900021C10B8
:100870000500DF60DDD88945C74C9CD2659D9E642C
:100880008A9F00000306B20045001810050038B624
:100890000834A909A0478BFDA0768815B66500012C
:1008A000420011241FBECFEFDAE0DEBFCDBF12E061
:1008B000A0E0B1E0E6E2F9E502C005900D92AA32AF
:1008C000B107D9F723E0AAE2B2E001C01D92A83B2C
:1008D000B207E1F70E94A2250C94522C0C94000060
:1008E000E8EDF0E080818E7F80831092E20010922C
:1008F000DA001092E100A0EEB0E08C9181608C9360
:1009000080818F77808319BCA7EDB0E08C918E7FBA
:100910008C9380818F7E8083109283030895209131
:10092000E4003091E50095E6A9012091EC00822FCA
:10093000817020FF06C08091E80080FF06C080E043
:1009400008952091E80022FD1AC08091AA0388230F
:1009500089F0853089F08091EB0085FD0FC02091F2
:10096000E4003091E50042175307F9F29150E1F6A7
:1009700084E0089582E0089583E0089581E0089579
:10098000EF92FF920F931F93CF937C018B010E94F4
:100990008F04C82F882371F08C2FCF911F910F9156
:1009A000FF90EF900895F70181917F018093F1000E
:1009B000015011090115110579F38091E80085FDB9
:1009C000F2CF8091E8008E778093E8000E948F0438
:1009D000882381F3C82FE0CF8091AC0387FF13C039
:1009E0008091E80082FF06C08091E8008B778093B9
:1009F000E80004C08091AA038111F2CF089580918C
:100A0000AA038823D9F38091E80080FFF8CF809172
:100A1000E8008E77ECCF982F9093E900242F762F63
:100A200050E0891731F07091EC002091ED00509169
:100A3000F00021FD07C09F5F973071F78093E900B8
:100A400081E008953091EB003E7F3093EB003091D0
:100A5000ED003D7F3093ED003091EB00316030933D
:100A6000EB007093EC002093ED005093F000209188
:100A7000EE0027FDE0CF80E00895CF92DF92EF9265
:100A8000FF920F931F93CF93DF93C8EDD0E088813F
:100A90008F7E8883E7EDF0E080818160808384E051
:100AA00082BF81E08093830388818E7F888302EEFA
:100AB00010E0F80110821092DA0081EEC82ED12CDD
:100AC000F601108288818F77888388818068888387
:100AD00088818F7D888319BC1092AA031092AB0382
:100AE0001092A9031092A80390EEE92EF12CF701C1
:100AF00080818B7F808388818160888342E060E091
:100B000080E00E940B05F60180818E7F8083F801D2
:100B1000808181608083808188608083F70180810B
:100B20008E7F8083888180618883DF91CF911F9140
:100B30000F91FF90EF90DF90CF900895FC0180918E
:100B4000B2039091B30386179707A0F06115710562
:100B500029F48091E8008E778093E80090E0611599
:100B6000710551F4911108C08091E80082FF35C0F1
:100B700080E00895BC01F2CF8091AA038823C9F1D7
:100B80008530C9F18091E80083FD31C08091E80093
:100B900082FDEACF8091E80080FFE1CF8091F300F1
:100BA0002091F200382F6115710519F028303105B8
:100BB00058F091E02830310509F090E08091E8008C
:100BC0008E778093E800CBCF84918093F1003196AB
:100BD000615071092F5F3F4FE6CF8091AA038823B0
:100BE00041F0853041F08091E80083FFBDCF81E086
:100BF000089582E0089583E00895FC018091B20396
:100C00009091B30386179707A0F06115710529F439
:100C10009091E8009E779093E80090E0611571054F
:100C200051F4911108C08091E80082FF34C080E047
:100C30000895BC01F2CF8091AA038823C1F18530C9
:100C4000C1F18091E80083FD30C08091E80082FD11
:100C5000EACF8091E80080FFE1CF8091F3002091FE
:100C6000F200382F6115710519F02830310558F060
:100C700091E02830310509F090E02091E8002E77CE
:100C80002093E800CBCF81918093F10061507109EE
:100C90002F5F3F4FE7CF8091AA03882341F0853033
:100CA00041F08091E80083FFBECF81E0089582E0AB
:100CB000089583E008958091AA03843011F482E0BE
:100CC000089581E008950895809187030895209103
:100CD000AA03243099F423E02093E90070E050E067
:100CE00040E00E94C004882321F0109281031092FA
:100CF00082038091E8008E778093E80008959091B8
:100D00006503803F41F48091660387FD109266037E
:100D1000992371F00895813F29F480916603181694
:100D2000ACF3F6CF823F81F497FFF2CF10926503C8
:100D30008091660390916703892B90916803892BBA
:100D400049F7109269030895833F19F4191674F353
:100D5000DFCF893F39F4809167031816CCF61092E3
:100D60006703D6CF8A3F29F48091670387FFD0CFEE
:100D7000F6CF8B3F39F48091680387FFC9CF10927B
:100D80006803C6CF8C3F29F4809168031816BCF322
:100D9000BFCF843F31F4809164038E7F80936403DE
:100DA000B7CF853F21F4809164038D7FF7CF863FD5
:100DB00021F4809164038B7FF1CF873F21F48091F0
:100DC0006403877FEBCF883F21F4809164038F7E9B
:100DD000E5CF8D3F31F4809129038E7F80932903E5
:100DE00097CF8E3F21F4809129038D7FF7CF8F3FDE
:100DF00009F08ECF809129038B7FF0CF809129035A
:100E000080FD16C081FD16C082FD16C08091690369
:100E10008823A1F0883280F428E0829FC001112449
:100E200068E270E00E94AC2A862F672B39F00895A3
:100E300082E0089584E0089588E0089581E00895AF
:100E40008091290380FD14C081FD14C082FD16C06D
:100E500080916903882381F08E3180F423E2829FA0
:100E6000C00111246EE170E00E94AC2A862F089523
:100E700088E0089581E1089585E0089583E208956A
:100E8000803F31F40E942007819580936603089586
:100E9000813F19F40E942007F8CF823F31F40E946D
:100EA00020078195809365030895833F19F40E947C
:100EB0002007F8CF893F29F40E94FE06809367033C
:100EC00008958A3F21F40E94FE068195F7CF8B3F5B
:100ED00031F40E94FE0681958093680308958C3F4B
:100EE00019F40E94FE06F8CF843F31F48091640328
:100EF0008160809364030895853F21F480916403A9
:100F00008260F7CF863F21F4809164038460F1CF43
:100F1000873F21F4809164038860EBCF883F21F400
:100F2000809164038061E5CF8D3F31F48091290386
:100F300081608093290308958E3F21F480912903D5
:100F40008260F7CF8F3FB9F7809129038460F1CF9A
:100F5000CF92DF92EF92FF920F931F932FB7F894E7
:100F60004091250350912603609127037091280337
:100F70002FBF6A017B01EE24FF248C0130E020E0CA
:100F8000C016D106E206F30650F0481B590BCA0101
:100F90001F910F91FF90EF90DF90CF9008954150F7
:100FA0005109F3CFCF92DF92EF92FF926C01EE24C2
:100FB000FF2420E0C114D104E104F10419F0C701B9
:100FC000B60120E1C72ED82EE92EFF24C114D1048A
:100FD000E104F10419F0285FC701B6016B017C013F
:100FE00054E0F694E794D794C7945A95D1F7C11476
:100FF000D104E104F10419F02C5FC701B6016B01C3
:101000007C0142E0F694E794D794C7944A95D1F7CF
:10101000C114D104E104F10419F02E5FC701B60137
:101020009695879577956795672B682B692B09F0BF
:101030002F5F822FFF90EF90DF90CF9008958091E7
:1010400020038111109220030895809590911F0331
:10105000982390931F03089580911F0390911E037E
:10106000892B90911D03892B80932A029091200354
:101070009923A1F0892B80932A0280911F01882354
:1010800041F18091420387FF24C08EE1ECE2F2E05F
:1010900090E0815000F591110E941F08E0914503F6
:1010A000F09146033097E1F080911F01882359F0B9
:1010B0008091420387FF07C080912A0280932B0210
:1010C00085E080932A020280F381E02D8AE292E09B
:1010D000099486E0DBCF21912223D9F29F5FD9CFFB
:1010E000089580911B03811110921B030895909124
:1010F0001F019923D1F09091420397FF16C0E82F6A
:10110000E695E695E695EE31E0F4F0E0E65DFD4F1C
:10111000282F277081E090E001C0880F2A95EAF718
:1011200080959281892382830895ECE2F2E0919187
:10113000891303C0DF0111971C9292E0E233F90793
:10114000B1F7089590911F019923C1F09091420346
:1011500097FF14C0E82FE695E695E695EE31F8F492
:10116000F0E0E65DFD4F877021E030E001C0220F26
:101170008A95EAF78281822B82830895ACE2B2E0FD
:10118000EFEF90E02D91821751F0EF3F19F421110C
:1011900001C0E92F9F5F9630A9F7EF3F09F408954A
:1011A0000E2E000CFF0BE65DFD4FE6CFE92FEE0F94
:1011B000E90FEE0F8E0F982F97708695869586957E
:1011C00025E0829FF0011124EC51FD4F50E040E0FA
:1011D00080E0219130E0092E02C0369527950A94CF
:1011E000E2F721703327042E01C0220F0A94EAF798
:1011F000822B4F5F5F4F4530510559F70895E92F16
:10120000EE0FE90FEE0F8E0F982F977041E001C09F
:10121000440F9A95EAF786958695869595E0899F7D
:10122000F0011124EC51FD4F30E020E070E05191CD
:10123000DF011197CB01022E02C0969587950A9483
:10124000E2F7817081958527842385278C932F5F12
:101250003F4F2530310559F708958091E302909171
:10126000B202981301C008958F5F8770FACF882368
:1012700041F0809590911E03892380931E030C9466
:101280002C080895882339F090911E03982B909391
:101290001E030C942C080895882321F00E94250831
:1012A0000C942C080895882339F090911F03982BF3
:1012B00090931F030C942C08089520919402309170
:1012C00095022817390771F0909395028093940244
:1012D000E0914503F0914603309721F00084F185B9
:1012E000E02D0994089520919202309193022817DD
:1012F000390771F09093930280939202E091450335
:10130000F0914603309721F00680F781E02D099493
:101310000895E0914503F0914603309721F0019044
:10132000F081E02D099480E00895FA01811101C057
:10133000FB01099480915C03982F9E7F29F48170B2
:10134000826080935C0308958A34E8F38170886436
:10135000F8CFAF92BF92DF92EF92FF920F931F935D
:10136000CF93DF93082F162FE901E42FF0E0E45527
:10137000FF4F611111C0E4915E2F4E2F4983E88326
:101380005A831B82DF91CF911F910F91FF90EF90B5
:10139000DF90BF90AF900895E62EF12C4491D42EAB
:1013A000E42FF0E026E0829FC00111242FEF30E00F
:1013B000B9010E94982A802F90E0880F991F55E567
:1013C000569FD001579FB00D11248A1B9B0B982F5D
:1013D000990F890F5901AE18BF08AE9ED001AF9E7C
:1013E000B00DBE9EB00D11245B2F189F80011124FB
:1013F000012F11275901A01AB10AAE9E8001AF9E9C
:10140000100DBE9E100D11245901A81AB108AE9CF2
:10141000C001AF9C900DBE9C900D1124892F99277F
:10142000281B390B2E9FC0012F9F900D3E9F900DC2
:101430001124E92F62307105A1F050F46115710596
:1014400009F49CCF6130710581F0EB2F512F96CFBD
:101450006430710569F080F06630710509F48ECF53
:10146000F4CFE42F4B2F592F89CFE42F412F86CF74
:10147000EB2F542F492F82CF4B2F5D2DE12F7ECFA5
:101480009091420392FF06C0282F28712830F9F46A
:10149000877F846093FF06C0282F28712831F1F4DC
:1014A000877E84612091430320FF06C0382F387166
:1014B0003830D9F4877F816021FF06C0282F28713A
:1014C0002831D1F4877E816194FD877E0895282F8D
:1014D00024712430F9F68B7F8860DCCF282F2471AB
:1014E000243101F78B7E8861DDCF382F31713130A7
:1014F00019F78E7F8860E0CF282F2171213121F7E5
:101500008E7E8861E1CFCF93DF93972F70E026E046
:10151000929F600D711D1124FB0134E5839FE00D46
:10152000F11D1124EE0FFF1FEF54FD4FC591D49113
:10153000CE01C238D105B9F1E8F5C133D10509F4BE
:1015400099C050F5C932D10509F48DC0CA32D10510
:1015500009F497C0C11542E5D40708F0C4C0C1150D
:1015600021E5D20708F038C1C83ED10508F09DC07A
:10157000C03ED10568F5C83AD10508F089C0C53A22
:10158000D10508F005C1C130D10511F1209709F44A
:1015900043C02497E8F440C0C533D10509F45CC0CA
:1015A000C933D105B9F620914203237089F080EE4A
:1015B00090E00EC0C33ED10591F168F4C03ED10564
:1015C000F9F0C23ED10531F62091420322FD20C040
:1015D000DF91CF910895C63ED10561F1C73ED10597
:1015E00081F1C43ED10509F0B5CF2091430321FF1D
:1015F000EFCF8091420384FD0FC087EE90E0E8CFEB
:101600002091420320FD19C13091430330FFE0CF08
:1016100083EE90E024FFDCCF90E080E0D9CF2091F2
:10162000420322FD0DC13091430330FDC0CF24FFA2
:10163000CFCFF2CF2091420323FFCACF24FDECCFBE
:10164000DCCF2091420323FDFEC03091430331FFE4
:10165000EECF84EE90E0BCCF2091420325FFB8CFBF
:1016600089E290E0B5CF2091420325FFB1CF85E319
:1016700090E0AECF2091420326FFAACF8AE290E00D
:10168000A7CF2091420326FFA3CF81E390E0A0CF14
:10169000CF3BD10508F6C85AD0E0CC0FDD1FC450AF
:1016A000DE4F88819981946493CFC11530E2D307CE
:1016B00060F4C11541E0D40708F08ACFCE019065EF
:1016C000C03FD10508F084CFA7CFC11580E4D8076B
:1016D00008F4A2CFC11590E5D90708F061C0CE018A
:1016E0009F70906A75CFC11526E5D20718F5C11510
:1016F00035E5D30708F086C0C11544E5D40708F0E6
:101700007CC09C2F96959695AE0143705527C115C8
:10171000D34508F466C021E030E002C0220F331F39
:101720004A95E2F740E2949FC0011124822B932B4B
:101730009A684ECFC1159AE5D90778F4C11529E505
:10174000D20708F069C0C11538E5D30708F464CFA3
:101750009C2F8827806F906A3BCFC1154BE5D4073B
:1017600008F45ACFC1158CE5D80708F462C0CE0141
:1017700090568115904208F04FCF8D2F8F710E94A7
:10178000400A90E0982F882788279F718C2B42C0B1
:10179000C55AD0E0C750DE4F888190E0906418CFE2
:1017A0009E01E4E036952795EA95E1F723708C2FAA
:1017B00086958695837030E2839FC0011124922B19
:1017C000C37021E030E002C0220F331FCA95E2F758
:1017D000822B932B9C68FCCE9C2F8827816F906A6C
:1017E000F7CE21E030E002C0220F331F4A95E2F726
:1017F00040E2949FC0011124EBCF9C2F8827846F77
:10180000906AE6CE8C2F0E94400A90E0982F88279D
:1018100088279F719062DCCE8C2F8F700E94400AC7
:1018200034E0D695C7953A95E1F7CF709C2F906933
:10183000CFCECE0199279066CBCE89E390E0C8CE7B
:1018400082EE90E0C5CE86EE90E0C2CEBF92CF92FF
:10185000DF92EF92FF920F931F93CF93DF938C0150
:10186000C0907C03D0907D03E0907E03F0907F03D6
:101870008091210390912203A0912303B09124032E
:10188000C82AD92AEA2AFB2ACFE1D0E0BC2ED70108
:10189000C6010C2E04C0B695A795979587950A9416
:1018A000D2F780FD0EC0219788F7B12C8B2DDF91E8
:1018B000CF911F910F91FF90EF90DF90CF90BF904D
:1018C0000895B8018C2F0E94830A019761F3EECF2F
:1018D000CF93DF93EC010E94260CBE01DF91CF91E4
:1018E0000C94830A0E94680C292F2F7092959F7088
:1018F00092509E3078F4E92FF0E0EC5AF34D0C94BE
:10190000C02A803F19F020F4883E20F481E0089539
:10191000843FE1F380E00895883EC0F3813FD1F732
:10192000F5CF822F869586958695089527982F98CE
:10193000089526982E98089525982D9808955698DC
:101940005E980895279A2F9A0895269A2E9A0895B8
:10195000259A2D9A089584B1807F84B985B1807FBE
:1019600085B98AB1837F8AB98BB1837F8BB93E9861
:101970004698089580B38C7080BB81B3836F81BB20
:101980000895CF93DF9300D00F92CDB7DEB790913B
:10199000AA03943019F589837B836A8382E080935C
:1019A000E9008FEF9091E800815095FD06C095ED1C
:1019B0009A95F1F700008111F5CF8091E80085FF3D
:1019C0000DC050E040E063E070E0CE0101960E945F
:1019D000C0048091E8008E778093E8000F900F900C
:1019E0000F90DF91CF910895CF93DF93EC010E9488
:1019F0005B06823011F0843031F4BE0184E0DF9167
:101A0000CF910C94C10CDF91CF910895BC01605827
:101A1000710983E00C94C10CCF93DF93EC010E9419
:101A20005B06823011F08430F9F482E08093E900A3
:101A30008FEF9091E800815095FD06C095ED9A9545
:101A4000F1F700008111F5CF8091E80085FF0CC00F
:101A500050E040E066E070E0CE010E94C00480915A
:101A6000E8008E778093E800DF91CF910895CF93BF
:101A7000DF93EC010E945B06823011F08430B9F5EF
:101A800080911F018823B1F18091420387FF32C00A
:101A900060E282E08093E9008FEF9091E80081504E
:101AA00095FD06C095ED9A95F1F700008111F5CFEF
:101AB0008091E80085FF1BC080911F0170E050E01D
:101AC00040E0811104C050E040E068E070E0CE01E9
:101AD0000E94C0048091E8008E778093E80080E245
:101AE000FE01A8E8B3E001900D928A95E1F7DF913D
:101AF000CF91089568E081E0CDCFEF92FF920F93F0
:101B00001F93CF93DF930E949F0C0E949C0C0E9416
:101B1000990C0E94960C88E8E82EF12C8FEF90E04B
:101B2000F701918380830AE810E0F80191838083B4
:101B3000CCE8D0E0998388830E94A80CFFEF20E7CF
:101B400082E0F15020408040E1F700C000000E9498
:101B5000A50C9FEFE0E7F2E09150E040F040E1F7A4
:101B600000C000000E94A20C2FEF80E792E02150FD
:101B700080409040E1F700C000000E949C0CEFEF15
:101B8000F0E722E0E150F0402040E1F700C0000023
:101B90000E94990C8FEF90E7E2E081509040E04086
:101BA000E1F700C000000E94960C8091300387701E
:101BB000FFEF8F9FC0011124959587959595879587
:101BC0009927F70191838083F8019183808399831A
:101BD00088830E949F0C0E949C0C0E94990CDF91AC
:101BE000CF911F910F91FF90EF900C94960CCF9393
:101BF00084E090E00E94D22AC82F81E290E00E9407
:101C0000D22A982F8C2FCF91089560912C038CE0CD
:101C100090E00C94E62ACF92DF92EF92FF926B0154
:101C20007C010E949A09B701A60188E090E0FF902C
:101C3000EF90DF90CF900C94F82A8091600383306E
:101C400018F48F5F8093600360915C0370915D0373
:101C500080915E0390915F030C940B0E8091600362
:101C6000882319F081508093600360915C03709128
:101C70005D0380915E0390915F030C940B0EECE585
:101C8000F3E083E0808311828FEF82838383148269
:101C900060817181828193810C940B0E6FEE7EEFD7
:101CA00090E080E00E94042B60E082E090E00E94DF
:101CB000E62A60E083E090E00E94E62A1092210389
:101CC00010922203109223031092240360E084E018
:101CD00090E00E94E62A60E081E290E00E94E62A1D
:101CE00060E085E090E00E94E62A60E086E090E017
:101CF0000E94E62A6FEF87E090E00E94E62A40E02B
:101D000050E0BA0188E090E00E94F82A60E08DE09F
:101D100090E00E94E62A40E050E0BA0188E190E0BD
:101D20000E94F82A60E087E190E00E94E62A40E005
:101D300050E0BA018CE190E00E94F82A60E080E275
:101D400090E00E94E62A1092300310923103109224
:101D500032031092330384E080618093300340911A
:101D600030035091310360913203709133038FE05F
:101D700090E00E94F82A40E050E0BA0183E190E050
:101D80000C94F82ACF93C82F873070F580911301F7
:101D900090911401892B89F564E670E080E40E943B
:101DA000D7299093140180931301892BD1F464E611
:101DB00070E082E10E94332A909314018093130112
:101DC000892B79F481E090E001C0880FCA95EAF789
:101DD00064E670E080950E94332A9093140180930A
:101DE0001301CF910C94862A8A30B9F040F48830E0
:101DF00071F0893079F0209A2898CF9108958C302D
:101E000091F070F08D30B9F73E9A4698F6CF219A4E
:101E10002998F3CF229A2A98F0CF239A2B98EDCFC6
:101E2000529A5A98EACF539A5B98E7CF80E290E0B3
:101E300090931401809313018091500281110EC080
:101E40000E94D12981E0809350022FEF83ED90E32F
:101E5000215080409040E1F700C0000064E670E04F
:101E600080E40E94D7299093140180931301892B59
:101E700009F04EC064E670E080E00E94332A90933F
:101E8000140180931301892B09F042C064E670E0CD
:101E900080E00E94332A9093140180931301892BD0
:101EA000B9F564E670E08FE30E94332A9093140141
:101EB00080931301892B61F50E94862A64E670E005
:101EC00080E40E94D7299093140180931301892BF9
:101ED000F9F464E670E08CE00E94332A90931401D8
:101EE00080931301892BA1F464E670E080E00E94E6
:101EF000332A9093140180931301892B49F464E6EB
:101F000070E08FE30E94332A9093140180931301B1
:101F10000E94862A809113010895CF93DF938091C8
:101F20005C0380FD0BC0E4E5F2E0118210821282B6
:101F30001382349652E0E039F507B9F7C4E5D2E0F0
:101F4000FE01928120813181892F291708F4822F87
:101F5000381708F4832F8383381B3183281B208391
:101F6000981B9283349682E0E039F80751F70E947B
:101F7000D12964E670E084E80E94D72964E670E025
:101F800088810E94332A64E670E089810E94332AA6
:101F900064E670E08A810E94332A64E670E08B81F7
:101FA0000E94332A249692E0C039D90739F70E945B
:101FB000862A579A3BB13F772BB120684FB7F894E8
:101FC00084E592E0FC015191CF0168E02BB900005B
:101FD00000C057FF3BB9550F000000C000C000C053
:101FE0003BB900C06A9591F7F2E080399F0751F73D
:101FF0004FBF8FE391E00197F1F700C00000DF9140
:10200000CF910895EF92FF920F931F93CF93DF9399
:102010008C01C4E5D2E0F12CE12CF80194816091AF
:102020005E0380915D03F7E0EF16F104FCF4992361
:10203000F9F09E0140915F030E94A9092FEFE21A77
:10204000F20A24968FE0E816F10439F70E948D0F0A
:10205000F801848190E00196817099278483DF9153
:10206000CF911F910F91FF90EF900895992309F35D
:102070009E0140E0E1CFEF92FF921F93CF93DF9359
:10208000EC0184E5E82E82E0F82E10E08C819701C7
:1020900040915F0360915E03810F0E94A9091F5E5A
:1020A00084E0E80EF11C1F3F89F70E948D0F9A8192
:1020B0008C8190FF08C08F5F8C83DF91CF911F913F
:1020C000FF90EF9008958150F7CFBF92CF92DF92AB
:1020D000EF92FF920F931F93CF93DF93FC018281C6
:1020E000DD24DA9480FD02C0DD24D39404E512E0FF
:1020F000D0E0C0E02FE0B22EF801118210821282EF
:10210000138294E0E92EF12CC12C809151028C0DA8
:1021100080310CF43DC06B2D0E948A2A892F082E35
:10212000000C990B8C179D0791F480915F038E9D95
:10213000A0018F9D500D11245595479555954795B4
:10214000980160915E0380915D030E94A909CD0C06
:10215000F1E0EF1AF108C9F621960C5F1F4FCF305E
:10216000D10551F60E948D0F8091510291E0D91254
:1021700015C0811111C08EE080935102DF91CF9183
:102180001F910F91FF90EF90DF90CF90BF90089537
:1021900087FFC5CF815FC3CF8150EECF90E001961E
:1021A000BE010E94AC2AE8CF0F931F93CF93DF9319
:1021B000C4E5D2E0FE0111821082128213823496AD
:1021C00082E0E039F807B9F710E000E080915202B0
:1021D000082E000C990B081719078CF18091120139
:1021E000082E000C990B801791074CF19E0140912D
:1021F0005F0360915E0380915D030E94A9090F5FF8
:102200001F4F24960F30110509F70E948D0F809102
:10221000110190915202980F909352022091120155
:10222000280F20931201121614F49E301CF0819591
:1022300080931101DF91CF911F910F910895198221
:1022400018821A821B82DBCFEF92FF920F931F93AB
:10225000CF93DF93EC018C819D810196817099274A
:102260009D838C8384E5E82E82E0F82E10E005E55E
:10227000812F86952C813D81820F932F911D817036
:10228000970140915F0360915E03809F802D112430
:102290000E94A9091F5F84E0E80EF11C1F3041F77E
:1022A000DF91CF911F910F91FF90EF900C948D0FC4
:1022B00090915C0390FF0DC0E4E5F2E081836083C0
:1022C00042831382349692E0E039F907B9F70C940F
:1022D0008D0F08950F931F93CF93DF9300D000D0FD
:1022E000CDB7DEB78C018091530281110AC09E01E7
:1022F0002F5F3F4F4FEF6FEF0E94A9098A818093B4
:102300005302F8016481613069F08091530240E02A
:10231000662361F040E0623011F44091530280E0A6
:1023200060E004C06091530240E080E00E945811D8
:10233000F801848190E0019663E070E00E94AC2A8D
:1023400084830F900F900F900F90DF91CF911F918A
:102350000F910895CF93DF9300D000D0CDB7DEB7B3
:1023600090915C0390FF0AC09E012F5F3F4F0E9437
:10237000A9094B8169818A810E9458110F900F90A1
:102380000F900F90DF91CF910895CF93DF93EC01E1
:10239000EC81F0E0EF54FE4F4491ECE5F3E0628114
:1023A00081810E94AA118C818F5F8C83DF91CF91F4
:1023B0000895CF93DF93EC01ECE5F3E04381628174
:1023C0008C810E94AA118C818F5F8C83DF91CF91C9
:1023D00008955F926F927F928F929F92AF92BF9279
:1023E000CF92DF92EF92FF920F931F93CF93DF93E1
:1023F00000D000D0CDB7DEB7182F762E042F622E76
:1024000090915C0390FF29C0E92FE695AE2FB0E0D4
:10241000A45DBE4F8C91809361039E7F923089F5BD
:102420009E012F5F3F4F812F0E94A9094B81698137
:102430008A810E94581110935D0370925E0300938D
:102440005F03662051F060915C0370915D038091A1
:102450005E0390915F030E940B0E0F900F900F9000
:102460000F90DF91CF911F910F91FF90EF90DF9030
:10247000CF90BF90AF909F908F907F906F905F9024
:102480000895823019F400915F03D5CF863019F496
:1024900010915D03D0CF8930D9F3893161F6E951CC
:1024A0008E2F8170582EE695F0E0E455FE4FA590F2
:1024B000B490BB2484E5E82E82E0F82ED12CC12C08
:1024C0009FE0892E912CC601B4010E94982A812F89
:1024D000511013C0860F9701402F672D0E94A90944
:1024E000CA0CDB1C84E0E80EF11C80E9E81682E0EF
:1024F000F80649F70E948D0F9ECF861BECCFECE5C6
:10250000F3E043812CE0421B08F440E021E06281CB
:1025100081810C94E911ECE5F3E043812CE0420F5A
:1025200008F44FEF21E0628181810C94E911ECE520
:10253000F3E062812FEF621B08F460E021E0438149
:1025400081810C94E911ECE5F3E062812FEF620FD9
:1025500008F46FEF21E0438181810C94E911ECE5EF
:10256000F3E0818121E0438162818C500C94E91178
:10257000ECE5F3E0818121E043816281845F0C948A
:10258000E911ECE5F3E080818E7F808360817181C9
:10259000828193810E940B0E109262032FEF80E7DD
:1025A00092E0215080409040E1F700C000000C9480
:1025B0008D0FCF93873008F040C080911301909128
:1025C0001401C0E0892B71F464E670E080E40E949D
:1025D000D7299093140180931301892B31F0C0E027
:1025E0000E94862A8C2FCF91089564E670E083E1E3
:1025F0000E94332A9093140180931301892B79F759
:1026000064E670E081E40E94D729909314018093DE
:102610001301892B21F784E690E00E94622A97FF3C
:1026200005C09093140180931301D9CFC82FC09592
:102630001092140110921301D3CFCFB18FB18695B0
:1026400086958C73C3708C2BC82FC095CBCF789494
:102650001F921FB61F9211248F939F93AF93BF9326
:102660008091250390912603A0912703B091280320
:102670000196A11DB11D8093250390932603A0937D
:102680002703B0932803BF91AF919F918F911F9023
:102690001FBE1F9018952FB7F89480912503909135
:1026A0002603A0912703B09128032FBF0895E0913E
:1026B0004503F0914603309749F082E0809363032D
:1026C0000480F581E02D83E693E009950E944B1389
:1026D00090936B0380936A03089510921E031092E7
:1026E0001D030E942C0886E0E3E6F3E0DF011D9263
:1026F0008A95E9F710926903109229030E945713F3
:1027000090E080E00E94730990E080E00C945D0905
:1027100060932103709322038093230390932403F7
:102720000C946D1310921F0380911F01ECE2F2E0F4
:10273000882359F08091420387FF07C08EE1DF01B3
:102740001D928A95E9F70C946D1386E0F8CF1F93DC
:10275000CF93DF93CDB7DEB7AA970FB6F894DEBF5D
:102760000FBECDBF8CEA93E02091F100FC012193D4
:10277000CF01F3E0843B9F07B9F78091AD03893027
:1027800009F444C018F5823009F4B7C0833009F465
:102790006CC0813031F58091AC03813A11F58091A4
:1027A000E800877F8093E8008091B0039091B103A7
:1027B000892B41F560E288E893E070E00E94FD0516
:1027C0008091E8008B778093E8000BC08B3009F490
:1027D00069C008F481C0823409F4A0C0853409F4CA
:1027E000BAC08091E80083FF65C28091AC039091EC
:1027F000AD039A3008F05EC2E92FF0E0EE59F34DD8
:102800000C94C02A60E090E080E0D7CF8091AC03C8
:10281000813239F78091B0039091B103029708F7A4
:102820008091E800877F8093E8008091E80082FF34
:1028300017C09091F3008091F200029729F48091E3
:10284000F1008B7F813021F48091F1008093870328
:102850008091E8008B778093E8000E94EC04C1CF60
:102860008091AA038111E1CFBCCF8091AC03813A62
:1028700009F0B7CF8091B0039091B103892B09F093
:10288000B0CF8091E800877F8093E8008091E800D6
:1028900080FFFCCF80911F018093F1008091E800C0
:1028A0008E77D9CF8091AC03813209F09ACF809195
:1028B000B0039091B103892B09F093CF8091E80088
:1028C000877F8093E8000E94EC048091AE038093A0
:1028D0001F010E94921385CF8091AC03813209F0D1
:1028E00080CF8091E800877F8093E8000E94EC040D
:1028F0008091AF038093860374CF8091AC03813ABB
:1029000009F06FCF8091E800877F8093E800809185
:10291000E80080FFFCCF80918603BECF8091AC039E
:10292000803C09F05ECF8091B0039091B103029793
:1029300039F58091AE039091AF03892B09F5809111
:10294000E800877F8093E8006BE170E08DEB96E014
:102950000E949E0582CF8091AC03803C09F041CF5C
:102960008091B0039091B103079751F48091E800F2
:10297000877F8093E80062EB70E08BE096E0E8CF21
:102980008091EB0080628093EB002BCF803899F030
:10299000823809F08FC18091B0038F70873008F0C2
:1029A00089C18093E9008091EB0085FB882780F93D
:1029B0001092E90006C08091A8039091A90391119B
:1029C00082609091E800977F9093E8008093F100F7
:1029D0001092F1008091E8008E7768C1882309F495
:1029E00056C1823009F066C18091AE03811159C190
:1029F0008091B0038F702FEF280F263008F05AC156
:102A00008093E9002091EB0020FF4BC1933031F41B
:102A10008091EB0080628093EB0043C19091EB00CA
:102A200090619093EB0021E030E001C0220F8A9585
:102A3000EAF72093EA001092EA008091EB008860A8
:102A4000EACF811137C11091AE031F778091E30067
:102A50008078812B8093E3008091E800877F8093CA
:102A6000E8000E94EC048091E80080FFFCCF809198
:102A7000E30080688093E30082E0111183E080939B
:102A8000AA0318C18058823008F014C18091AE03A7
:102A90009091AF038C3D23E09207A1F583E08A83F8
:102AA0008AE289834FB7F894DE01139620E03EE076
:102AB00051E2E32FF0E050935700E49120FF03C070
:102AC000E295EF703F5FEF708E2F90E0EA30C0F03C
:102AD000C7968D939D932F5F243159F74FBF8091F7
:102AE000E800877F8093E8006AE270E0CE010196FB
:102AF0000E94FD058091E8008B778093E800DAC0A2
:102B0000C096E7CF4091B0035091B103292F3327EE
:102B10002330310569F1A0F42130310509F46CC08E
:102B200062E570E089ED97E02230310509F0C2C01E
:102B30002091E800277F2093E8000E949E05DACFCD
:102B40002132310509F440C02232310509F448C070
:102B50002F30310509F0AEC0EBE6F8E0E4916E2FBE
:102B600070E089E698E06115710509F4A3C0E0CF33
:102B7000992781309105C1F0009771F0823091055D
:102B8000D9F0039709F096C0EDE3F8E0E4916E2FD9
:102B900070E08DE398E0E7CFE5E6F8E0E4916E2F92
:102BA00070E085E698E0DFCFEBE5F8E0E4916E2F8A
:102BB00070E08BE598E0D7CFE3E4F8E0E4916E2F86
:102BC00070E083E498E0CFCF41155105D1F041305A
:102BD000510509F06FC069E070E084E098E0A8CF8B
:102BE0004115510599F04130510509F063C060EC81
:102BF00070E089ED96E09CCF62E170E08BE298E0B6
:102C000097CF69E070E08BEE97E092CF60E470E0E0
:102C100089E997E08DCF803809F04CC08091E800B9
:102C2000877F8093E8008091AB038093F100D2CE40
:102C3000811140C01091AE031230E0F58091E800A0
:102C4000877F8093E8001093AB030E94EC0411236C
:102C500011F084E005C08091E30087FDFACF81E0A8
:102C60008093AA0342E061EC81E00E940B0542E2FE
:102C700061EC82E00E940B0542E361EC83E00E947C
:102C80000B0542E360EC84E00E940B0513C08091C9
:102C9000AE03813079F481E0933009F080E08093D5
:102CA000A9031092E9008091E800877F8093E800F3
:102CB0000E94EC048091E80083FF0AC08091E80044
:102CC000877F8093E8008091EB0080628093EB0027
:102CD000AA960FB6F894DEBF0FBECDBFDF91CF919D
:102CE0001F9108951F920F920FB60F9211242F93E8
:102CF0003F934F935F936F937F938F939F93AF9384
:102D0000BF93CF93DF93EF93FF93D091E900DF70F0
:102D10008091EC00C82FC17080FDC0E81092E900DE
:102D20008091F000877F8093F00078940E94A71331
:102D30001092E9008091F00088608093F000CD2B24
:102D4000CF70C093E900FF91EF91DF91CF91BF91D8
:102D5000AF919F918F917F916F915F914F913F9133
:102D60002F910F900FBE0F901F901895882309F494
:102D700052C0823871F40E94890981FF4CC089E3F6
:102D80000E94A2080E942C0889E30E9477080C94F4
:102D90002C08833859F40E94890980FF3CC083E5E0
:102DA0000E94A2080E942C0883E5EFCF843859F4D2
:102DB0000E94890982FF2FC087E40E94A2080E9416
:102DC0002C0887E4E2CF9CEF980F913AF0F290E262
:102DD000980F983050F4877091E001C0990F8A9550
:102DE000EAF7892F0E942508D2CF9BE5980F9330F0
:102DF00020F490E080E00C94730998E5980F9731E7
:102E000020F490E080E00C945D09803F20F00E9467
:102E10007F060C9457130895882309F47BC08238E9
:102E2000B9F40E94890981FD75C089E30E94A20856
:102E30000E942C082FEF81EE94E0215080409040BA
:102E4000E1F700C0000089E30E9477080C942C0889
:102E50008338A1F40E94890980FD5CC083E50E944B
:102E6000A2080E942C082FEF81EE94E021508040B0
:102E70009040E1F700C0000083E5E6CF8438A1F47C
:102E80000E94890982FD46C087E40E94A2080E9430
:102E90002C082FEF81EE94E0215080409040E1F724
:102EA00000C0000087E4D0CF9CEF980F913A18F44F
:102EB0000E94A208CBCF90E2980F983068F48770F8
:102EC00021E030E001C0220F8A95EAF780911F03CC
:102ED000822B80931F03BACFEBE5E80FE33038F481
:102EE000F0E0E750FE4F808190E00C947309E8E534
:102EF000E80FE73148F4F0E0EE0FFF1FE450FE4F1B
:102F0000808191810C945D09803F20F00E944007F0
:102F10000C9457130895CF93C82F0E940C17C933F0
:102F200049F42FEF87EE93E0215080409040E1F785
:102F300000C000008C2FCF910C94B6160F931F93F6
:102F4000CF93DF93C62FD42F022FFC0182818823D9
:102F5000A1F06093A6020E944B139093910280937C
:102F60009002C77081E001C0880FCA95EAF7DF912F
:102F7000CF911F910F910C9453091091A602161333
:102F800035C080919002909191020E94A807843BE5
:102F9000910560F5C0E2CD0F1D17B9F080E2810FF9
:102FA000883040F4177081E001C0880F1A95EAF765
:102FB0000E944C09C83048F481E09D2F977001C0F1
:102FC000880F9A95EAF70E945309802F0E948B1769
:102FD000C83098F4D77081E001C0880FDA95EAF71D
:102FE000DF91CF911F910F910C944C09C77081E034
:102FF00001C0880FCA95EAF7F3CFDF91CF911F91F7
:103000000F91089560915C03669570E04BE050E08D
:1030100086E091E00E94452C892B19F481E0809391
:1030200062030E944B1390935703809356030895B5
:1030300090915C0390FF36C09170811129C092601D
:1030400090935C03662351F060915C0370915D0383
:1030500080915E0390915F030E940B0E60915C0370
:10306000669570E04BE050E086E091E00E94452CD0
:10307000892BA9F01092620381E08093590320E02C
:1030800040915F0360915E0380915D030C94E911B0
:10309000853210F09864D4CF880F982BD1CF0E943E
:1030A0000218EACF0895ECE5F3E080818160808327
:1030B00060E086950C9418181F920F920FB60F922D
:1030C00011242F933F934F935F936F937F938F932D
:1030D0009F93AF93BF93EF93FF938091E10082FFA3
:1030E00009C08091E20082FF05C08091E1008B7FE2
:1030F0008093E1008091DA0080FF24C08091D800A5
:1031000080FF20C08091DA008E7F8093DA0080916A
:10311000D90080FFA8C080E189BD82E189BD09B4E2
:1031200000FEFDCF81E08093AA038091830381118B
:1031300009C00E9470040E943D058091E2008460F5
:103140008093E2008091E10080FF17C08091E2004F
:1031500080FF13C08091E2008E7F8093E200809117
:10316000E20080618093E2008091D80080628093C9
:10317000D80019BC85E08093AA038091E10084FF08
:1031800036C08091E20084FF32C080E189BD82E1D7
:1031900089BD89B5982F917080FFFBCF8091D800B1
:1031A0008F7D8093D8008091E1008F7E8093E10035
:1031B0008091E2008F7E8093E2008091E200816046
:1031C0008093E2008091AB03882309F452C084E02D
:1031D0008093AA030E9492130E948909109285038A
:1031E0008091840381110E9453180E9402188091DB
:1031F000E10083FF27C08091E20083FF23C080911C
:10320000E100877F8093E10082E08093AA0310921F
:10321000AB038091E1008E7F8093E1008091E2001A
:103220008E7F8093E2008091E20080618093E200D3
:1032300042E060E080E00E940B058091F000886031
:103240008093F000FF91EF91BF91AF919F918F918B
:103250007F916F915F914F913F912F910F900FBE92
:103260000F901F90189519BC1092AA031092830317
:1032700069CF8091E30087FD93E09093AA03AACFE2
:1032800061E00C94181880915C038695815009F4D4
:1032900084E261E00C94181880915C0386958F5F3E
:1032A000853208F081E061E00C94181890915C037D
:1032B00090FF07C09695981720F0961710F40C947D
:1032C0004C190C944019CF92DF92EF92FF92CF935A
:1032D000DF936B017C010E94D207D82F0E949F0CC4
:1032E0000E949C0C0E94990C0E94960CC091A40212
:1032F000EFEFED0FE73008F063C0F0E0E459F34D75
:103300000C94C02A0E94A80CC1116AC00E945318D4
:1033100060E081E00E94181820E04FEF6FEF5DC081
:103320000E94A50CC1115CC00E94531860E081E0AE
:103330000E94181820E04FEF6FEF86E54FC00E9403
:10334000A20CC1114DC00E94531860E081E00E94A0
:10335000181820E04FEF6FEF8CEA40C00E94A80CD5
:103360000E94A50CC1113CC088E090E00E94DA2ABE
:1033700060935C0370935D0380935E0390935F039F
:1033800060FF37C0862F816080935C0386950E9422
:10339000401980915C0386950E94401921E040917C
:1033A0005F0360915E0380915D0318C00E94A80CCA
:1033B0000E94A20CD7CF0E94A80C0E94A50CF8CFA7
:1033C000D111D0CFC1110CC00E94531860E081E030
:1033D0000E94181820E04FEF60E080E00E94E911A1
:1033E000C701B601DF91CF91FF90EF90DF90CF90B2
:1033F00008950E94C112F4CFCF92DF92EF92FF9214
:10340000CF93DF9300D000D0CDB7DEB70E94631911
:103410006B017C0180918003882321F080918103DE
:10342000811115C0C0927C03D0927D03E0927E038F
:10343000F0927F030E946D130F900F900F900F90EA
:10344000DF91CF91FF90EF90DF90CF900895198298
:1034500082E08A83C701B6010E94D2078B838EEF78
:103460008C8364E0CE0101960E946706DBCF0F9348
:103470001F9341E050E060E070E004C0440F551F2E
:10348000661F771F8A95D2F7CB01BA0160957095B8
:103490008095909500917C0310917D0320917E038F
:1034A00030917F0360237123822393231F910F9117
:1034B0000C94FC1990911C038095892380931C0324
:1034C000282F277071F4282F082E000C330B921729
:1034D000130639F08595859585950E94371A1092C7
:1034E0001C0308950F931F9341E050E060E070E0EB
:1034F00004C0440F551F661F771F8A95D2F780912D
:103500007C0390917D03A0917E03B0917F038A019B
:103510009B01082B192B2A2B3B2BC901B8011F91AA
:103520000F910C94FC194F925F926F927F928F9241
:103530009F92AF92BF92CF92DF92EF92FF920F9342
:103540001F93CF93DF9300D000D00F92CDB7DEB79B
:103550006C01FC0183819481892B39F01081F18009
:10356000812F8F218F3F09F0C5C60F900F900F90CC
:103570000F900F90DF91CF911F910F91FF90EF90DF
:10358000DF90CF90BF90AF909F908F907F906F9083
:103590005F904F9008950E94260C082F682F898114
:1035A0009A810E94FF08E12FF0E026E0F29EE00DF4
:1035B000F11D112434E5039FE00DF11D1124EE0FE0
:1035C000FF1FEF54FD4F05911491809180038823D4
:1035D00021F080918103811179C6F6018281093041
:1035E000FDE51F0709F0E0C08823C9F18091300391
:1035F00091E0980F9770887F953008F4892B80931D
:1036000030038091300387702FEF829FC001112417
:10361000959587959595879599279093890080939F
:10362000880090938B0080938A0090938D00809304
:103630008C004091300350913103609132037091BE
:1036400033038FE090E00E94F82A60917C03709130
:103650007D0380917E0390917F030E946319F601A0
:1036600082818111B9C017FF06C1F60182818823CA
:1036700009F44DC080911F038093A50210921F038F
:1036800080912C03813009F4D1C0882309F4CAC089
:10369000823009F4D8C0843009F4DCC08FE39CE99F
:1036A0000197F1F700C000005801E894B7F84CE02A
:1036B000E42EF12C95010E2C02C0369527950A9424
:1036C000E2F72F7087E290E031F0822F90E02A300D
:1036D00008F0C5C04D960E948B1794E0E91AF108D6
:1036E000ECEFEE16EFEFFE0629F780912C03813008
:1036F00009F4BBC0882309F4B4C0823009F4B1C016
:10370000843009F4B6C08091A50280931F03F601AE
:103710009281992309F4FFC51092A6020230FCE5BC
:103720001F0708F4BCC106312CE5120738F09801D8
:103730002A5F3C452730310508F0B1C10E94F70DE2
:1037400090934303809342030F303CE5130709F441
:1037500087C108F001C108309CE5190709F46AC166
:1037600008F0D6C00430FCE51F0709F457C108F083
:10377000BCC002303CE5130709F448C103301C45C6
:1037800009F448C1609142031091430384E090E042
:103790000E94E62A612F81E290E00E94E62A0E94C0
:1037A0009213E3CE81E198C50A303DE5130751F04D
:1037B0000B309DE5190709F052CF882309F4D5CEC7
:1037C00081E091C1882309F4D0CE8091A40291E0D8
:1037D00089278093A402C9CE033EFCE51F07F1F0C0
:1037E00058F4013E3CE51307A1F0023E8CE51807B2
:1037F00009F039CF81E00AC0043E9CE5190781F049
:1038000084E0053EECE51E0709F02DCF80932C03E4
:1038100002C010922C030E94050E25CF82E0F6CF45
:1038200083E0F4CF82EE0E940C1738CF83E00E9431
:10383000420988E10E940C1788E10E94B61683E0D5
:103840000E9437092BCF82EE0E940C1787E50E9459
:103850008B1724CF86EE0E948B1788E1F8CF06974E
:103860003ACF82EE0E94B6164ECF8CE20E948B17A2
:103870004ACF88E2FBCF033FFCE51F0739F1A0F4F4
:10388000083D3CE51307F1F0093D8CE5180751F1BF
:10389000073D9CE5190709F03ACF26E241EE61EEBB
:1038A000C6010E949E1761CE053FECE51E07B1F0F0
:1038B00088F0063F2CE5120709F029CF27E245EEF4
:1038C00066EEEECF27E245EE65EEEACF26E241EE68
:1038D00060EEE6CF27E245EE64EEE2CF26E241EE6F
:1038E00062EEDECF28E241E0EFCF809142038061BB
:1038F00006309CE5190709F447C0809142038860AF
:1039000007301C4508F440C08091420380623CC0EF
:103910000B30FCE51F0709F49BC068F409303CE557
:10392000130709F48BC00A301C4509F02BCF809196
:1039300042038C6029C0809142038B7F0D309CE54F
:10394000190711F1809142038D7F0E301C45E0F084
:1039500080914203877F18C00A3FFCE51F0709F4E6
:1039600061C060F502313CE5130709F481C078F4C9
:1039700000319CE5190709F477C0809142038F7BE1
:1039800001311C4509F0FECE80934203FBCE043189
:10399000FCE51F0709F47AC008F470C005311C4526
:1039A00009F0F0CE8091420382FB992790F921E043
:1039B000922790FB82F990FB83F9E6CF0D3F8CE5CF
:1039C000180709F449C070F40B3FECE51E0771F1CC
:1039D000809143038E7F0C3F1C4509F0D3CE80932A
:1039E0004303D0CE0F3F2CE5120709F44BC060F122
:1039F00001151D4509F0C6CE80914303982F90957F
:103A000091708E7F892B90FB81F9E9CF80914203E1
:103A10008160BACF809142038260B6CF8091420329
:103A20008460B2CF809143038160D9CF80914303FA
:103A30008260D5CF809142038064A6CF0E9492130A
:103A4000809142038068A0CF809143038360C7CFF9
:103A5000809142038E7F98CF809143038D7FBFCFAB
:103A6000809142038F7E90CF809142038F7D8CCFD7
:103A70000E949213809142038F7786CF80914203F8
:103A8000837F82CF809143038C7FA9CF0E949213C2
:103A900090914203892F97FB87F9805875CF8091C9
:103AA0001F030631ECE51E0709F041C48A7A91E054
:103AB00009F490E09093A702811106C089E20E9468
:103AC000A2080E942C0851CD85E3F9CF85E32CC4D0
:103AD00080915C0380FF03C00E94C11246CD8160CB
:103AE00080935C0386950E9440193FCD43E459E1E1
:103AF0006CE479E10E94950938CD4CE459E163E426
:103B000079E1F8CF4FEA52E168EB72E1F3CF48EB8D
:103B100052E16FEA72E1EECF47E952E163EA72E106
:103B2000E9CF43EA52E167E972E1E4CF4FE752E1BE
:103B30006BE872E1DFCF4BE852E16FE772E1DACF79
:103B40004EE25EE06DE17EE0D5CF4DE15EE06EE2FB
:103B50007EE0D0CF65E082E00E94561906CD68E095
:103B600086E0FACF6EE089E0F7CF64E18FE0F4CF32
:103B700067E185E1F1CF88E1B6CF62E289E1ECCF80
:103B800083E2B1CF0E3DFCE51F0709F446C00830C3
:103B90002DE5120709F444C001151C4509F047C082
:103BA0000E9492138FEF94E3ECE081509040E0404C
:103BB000E1F700C00000F89481E08093E00080E22B
:103BC0008093D8001092C9008FE19EE40197F1F72D
:103BD00000C000001DBA109268001CBC10BE1FBAC5
:103BE00010927A0010926E0010926F001092710085
:103BF000109272001092C9001092BC0014B817B84D
:103C00001AB81DB810BA1092BC0015B818B81BB875
:103C10001EB811BA0C94003FA8CC0E944E0EA5CC41
:103C20008091820391E08927809382039ECCF601E4
:103C3000008111819923C1F1C8010E94260CF82E40
:103C4000682FC8010E94FF08B8018F2D0E94830AC7
:103C50008C01A82EF601E580E2943FE0E322F28099
:103C6000F11010921E0380911C03877079F0FF20E1
:103C700069F080E2800F883048F082E00E945A1A92
:103C800080911C038770992493948111912C812E2B
:103C900082942FE08222FBE0F815E8F1E82DF0E0B5
:103CA000ED58F34D0C94C02AC8010E94D608F82E96
:103CB000CBCF212F2F70E22E107F19F0E29490EFDE
:103CC000E922FF20C9F0EE2069F080E2800F883001
:103CD00010F0A1100BC080911F03E82AE0921F038F
:103CE0000E942C08802F0E940C1715C080911E0383
:103CF000E82AE0921E03F4CF802F0E94B616EE2031
:103D000051F0005E083010F0A11026C08E2D0E94E8
:103D100025080E942C08282D2850330B243031050B
:103D200010F40E948909992009F41FCC80911C038A
:103D300080FD1BCCF60112828595859585950E94A4
:103D4000721AC6010E94931A80911C03859585956D
:103D500085950E94371A09CCE09480911E03E822D1
:103D6000E0921E03D6CF312F3F70B32E107F10325A
:103D700019F0B29480EFB822AA2051F091E0A91670
:103D800009F440C0FF2009F447C0EE20F9F0AACFA3
:103D9000FF2001F1E11004C0809120038B2917C09E
:103DA000E1E0EE1209C080912003B82AB81609F4A8
:103DB000B2CFB0922003AFCFF2E0EF12EDCF0E946E
:103DC0001F0880911B03B812B0921B038B2D0E9419
:103DD0005309A1CFE11006C00E941F088B2D0E943D
:103DE0004C0999CF21E0E21208C080911F038B217A
:103DF00009F491CF0E947108EFCF32E0E31609F485
:103E00008ACFEACFFF2029F081E08E1508F483CF16
:103E1000DDCFE11080CFE2CFEE2001F3093349F48A
:103E20009FEFE7EEF3E09150E040F040E1F700C093
:103E30000000802F0E94B6166ECF812F8695869542
:103E4000837061F0813009F066CFC8019370F11082
:103E500002C090E080E00E945D095DCFC8019370D0
:103E6000F11002C090E080E00E94730954CFFF205F
:103E700009F1053F99F0063FB9F0043F49F48091FC
:103E8000A8029091A90281609093A9028093A80250
:103E9000802F0E9440070E9457133DCF8091A802B7
:103EA0009091A9028260F0CF8091A8029091A9021E
:103EB0008460EACF053F89F0063FA9F0043F49F44A
:103EC0008091A8029091A9028E7F9093A90280937D
:103ED000A802802F0E947F06DECF8091A8029091D9
:103EE000A9028D7FF2CF8091A8029091A9028B7FC9
:103EF000ECCF812F837009F066C0F1100CCF802FBA
:103F0000829586958770880F880F602F6F70462E78
:103F1000512C712C612C082E04C0440C551C661CBD
:103F2000771C0A94D2F740E050E0BA0104FF0FC0BA
:103F30004FE050E060E070E004C0440F551F661F82
:103F4000771F8A95D2F74095509560957095812F8F
:103F5000869586958370823019F1D8F400912103FB
:103F6000109122032091230330912403813069F0C2
:103F70004429552966297729CB01BA016023712389
:103F8000822393230E948813C6CE402A512A622A94
:103F9000732ACB01BA016429752986299729F2CFA2
:103FA000442955296629772900912103109122037C
:103FB0002091230330912403CB01BA01602771279C
:103FC00082279327DFCF8695FF2011F0812F817004
:103FD000882309F4A0CE802F829586958770880F5C
:103FE000880F602F6F70462E512C712C612C082E7B
:103FF00004C0440C551C661C771C0A94D2F740E0A0
:1040000050E0BA0104FF0FC04FE050E060E070E004
:1040100004C0440F551F661F771F8A95D2F740953D
:10402000509560957095812F869586958370823026
:1040300019F1D8F400917C0310917D0320917E0347
:1040400030917F03813069F0442955296629772909
:10405000CB01BA0160237123822393230E94FC19B0
:104060005ACE402A512A622A732ACB01BA01642906
:10407000752986299729F2CF442955296629772958
:1040800000917C0310917D0320917E0330917F038A
:10409000CB01BA016027712782279327DFCF1F70DA
:1040A000FF2029F0812F0E94721A802F90CE802F3E
:1040B0000E944C09812F0E94371A2DCE802F22EFAB
:1040C000A21609F453C02A1578F030EFA31641F177
:1040D00091EFA91609F442C0FF2009F48AC0E1104B
:1040E00001CE812F8F713FC0E3EFAE1609F443C0BC
:1040F000F4EFAF12F1CF80911B03FF2009F461C0F0
:104100000E94250880911C038770843009F046C006
:1041100010921C03812F8F710E94371A912CFBCDB6
:10412000FF20B9F0E110F7CD1F7161E070E080E091
:1041300090E004C0660F771F881F991F1A95D2F769
:1041400000917C0310917D0320917E0330917F03C9
:10415000A1CF21E02E1508F4DECDE6CF812F8F719F
:10416000FF2009F4A8CF0E94721AD5CD812F8F713C
:10417000FF20C9F3A0CF60E070E0CB01FF2009F47D
:104180006DCF1F7161E070E080E090E004C0660FC9
:10419000771F881F991F1A95D2F760CF31E03E151F
:1041A00008F4BCCF1F71812F0E94721AE8E01E9F95
:1041B000C0011124836080931C03812F0E94721A16
:1041C000ADCF90911F03982B90931F03F1E0FE1544
:1041D00060F40E947108812F8F7198E0899F90018F
:1041E0001124246020931C03E9CF81E00E945A1A15
:1041F00095CFEE2059F0893309F01BCEEFEFF7EEA3
:1042000023E0E150F0402040E1F711CE812F8F7183
:1042100052CF32EFA316D1F13A1500F180EFA81674
:1042200059F191EFA916D1F18091AA02EE2009F47B
:1042300041C0882341F08091AB0291E089278093AF
:10424000AB021092AA02802FF1104DCD0E94B6163B
:1042500086E0F60111928A95E9F75DCDE4EFAE169E
:10426000C1F0AE1688F0F5EFAF12DECF81E0F110AD
:1042700052CD8093AB024FCDFF2009F44CCD8091FD
:10428000AB0291E08927F5CF81E0F826F092AB02EE
:1042900042CDF11040CD1092AB023DCDFF2039F060
:1042A0008091AA02882359F31092AA0234CDE1101A
:1042B00032CDE5CF882309F42ECDF1102CCD80919D
:1042C000AB0291E089278093AB02EECFF6018281A9
:1042D0001982811167CA82E18A83F60180818B830A
:1042E00081818C838EEF8D8365E0CE0101960E94E3
:1042F000670673C985E0DE01119601900D928A95DB
:10430000E1F7F601228189819A81211144C90E9435
:10431000D608082F48C906311C4509F088CC809181
:10432000A7028111D3CB89E20E947708CACB82729F
:10433000F801E25CFC45E431F10508F023CCE158DA
:10434000F34D0C94C02A1F93CF93DF938091B10259
:10435000807FC1F48091AE028823A1F08091E302B6
:10436000C091B2026091AC027091AD024091AF0277
:104370005091B002D62FD723DA01A095B09516E060
:10438000C81304C0DF91CF911F91089590E04115AB
:10439000510511F0DF3F31F401968770F1CF2A0FFC
:1043A0003B1F17C0189FF001199FF00D1124ED5409
:1043B000FD4F21812713F0CF20812613EDCF2281DD
:1043C0002111EACF238134812417350740F3241BC0
:1043D000350B243B310500F72091B1022F7020618D
:1043E0002093B10226E0289FF001299FF00D1124AF
:1043F000E854FD4F80818F70806180838CEA92E069
:104400000E94931ADF91CF911F910C942D09BF92B6
:10441000CF92DF92EF92FF920F931F93CF93DF9390
:10442000CDB7DEB761970FB6F894DEBF0FBECDBF34
:104430008C0185E0F801DE011D9601900D928A95B0
:10444000E1F7D8012C9111963C9111971296EC90BE
:1044500012978091AF029091B002009709F463C166
:104460004091AC025091AD02642F65236F3F09F477
:104470005AC11396CD90DC90B090AE02BB2009F4E7
:1044800013C1C816D906C0F1F601E81BF90BCF011C
:10449000FF24F394843B910508F0F12C8091B10244
:1044A000982F907FFF2009F4C1C091117DC0FE2C90
:1044B000531327C0421325C0E11023C08F708061C1
:1044C0008093B1028CEA92E00E94931A8091B1022B
:1044D000D80115968C938F2D61960FB6F894DEBF98
:1044E0000FBECDBFDF91CF911F910F91FF90EF9045
:1044F000DF90CF90BF900895809590958C0D9D1D75
:10450000C7CFCD2829F0822F83238F3F09F035C1F3
:1045100080E0B82FB170DB2E80FF3CC08091E302B9
:104520004091B20256E0841315C02D873E878D85D9
:104530009E850E94680C292F22952F702230F0F062
:10454000243018F59F70F1F0F8019581907FD1F437
:10455000D12C1EC090E0589FF001599FF00D1124FE
:10456000ED54FD4F6181361306C06081261303C0F0
:104570006281E6120FC001968770D5CF9F7011F04F
:10458000882331F3805E883018F3C8010E94931AA3
:10459000FD2CA1CFEE2009F49ECF8091B102816065
:1045A0008093B102F12C97CF531313C0421311C063
:1045B000E1100FC0D80115968C93C8010E94931A80
:1045C00086E0F801ACEAB2E001900D928A95E1F73D
:1045D00082CF2D873E878D859E850E94720C882311
:1045E00009F1EE20F9F08091B102803270F0209153
:1045F000AC023091AD0238872F831986DB86CA86DC
:104600008C87CE0107960E94931A86E0F801ACEAE7
:10461000B2E001900D928A95E1F70E94A321FF2458
:10462000F39459CFC8010E94931AF9CF91110CC08D
:104630008CEA92E00E94931A86E0ECEAF2E0DF0155
:104640001D928A95E9F747CF531312C0421310C049
:10465000E1100EC0F8018583C8010E94931AECEAAC
:10466000F2E086E0DF011D928A95E9F7FB2C33CF5B
:104670002D873E878D859E850E94720C882391F23E
:10468000EE2081F28091B102803208F4BECF2091F9
:10469000AC023091AD023A8329831B82DD82CC8249
:1046A0008E83CE010196AFCFC816D90640F0C81A46
:1046B000D90AB4EBCB16D10448F0F12CBDCF8095CC
:1046C00090958C0D9D1D843B9105B8F7FE2CEE2036
:1046D00009F4A8CF531316C0421314C08091B1023D
:1046E00080FD6ECF982F907F09F46ACFF801858303
:1046F000903F09F462CF982F907F905F8F70892B45
:1047000085835BCF2D873E878D859E850E94720CA9
:1047100081117BCF8091B10281608093B102C80189
:104720000E94931AD8CEEE2009F47CCF2D873E87C5
:104730008D859E850E94720CF82E882309F472CF15
:1047400086E0F801ACEAB2E001900D928A95E1F7BB
:104750008091AC029091AD020E94680C92959F707E
:10476000963041F48091AB0291E089278093AB02AF
:104770009093AA020E94A321AECE81E08E25C9CEDD
:104780001F93CF93DF93CDB7DEB767970FB6F8943B
:10479000DEBF0FBECDBF6D8B7E8B8F8B8E899F89C9
:1047A000892BE1F0852F84238F3F09F098C05FEFBC
:1047B0004FEF14C03091AB02332309F44EC0E42F05
:1047C000F0E036E0539FE00DF11D1124EE0FFF1FC6
:1047D000EF5AFE4F40815181822B8C931A8A198A9D
:1047E0004B8B5C8B85E0FE017396DE011D9601907C
:1047F0000D928A95E1F786E0FE013D96DE0117965F
:1048000001900D928A95E1F7CE0107960E9407224A
:10481000811112C086E0FE013796DE0111960190EB
:104820000D928A95E1F78A859B85892B29F08F81E6
:10483000988589238F3FC9F516E08091E302909116
:10484000B202891320C067960FB6F894DEBF0FBE80
:10485000CDBFDF91CF911F91089580958223BDCF69
:1048600096E0929FD001939FB00D1124AD54BD4F9F
:10487000FE01319601900D929A95E1F78093B20274
:104880000E942D09D9CF819FC00111248D549D4FC5
:104890000E9407228823B9F28091E30290E00196FA
:1048A000877099278093E302C8CF2091B20230E04D
:1048B000C9010196877099274091E30248171906AC
:1048C00079F60E9492131092B2021092E30286E0EF
:1048D000ECEAF2E0DF011D928A95E9F7ADCF81E0C5
:1048E00090E0042E01C0880F0A94EAF7A52FB0E0EB
:1048F000AA56BD4F2C913D8931115CCF322F382300
:104900005BCF8F929F92AF92BF92CF92DF92EF9246
:10491000FF920F931F93CF93DF9380911301909198
:104920001401892B91F080914F028F5F80934F0289
:1049300081110BC00E94160F90E090931401809398
:104940001301892B11F40E947D0D04E313E078011B
:10495000C0E0912C37E0C32ECC0E8C2F0E94C20EEB
:104960008C2D0E94C20E8C2F0E94D912D7019D91CE
:104970007D01D12C891729F0FD0131978083DD2439
:10498000D3948C2D0E94D912F7019681891709F4CE
:1049900065C0868381E08D29982A0E94AB0CCF5F89
:1049A000C730C1F60E944B136AEF70E00E94982A4C
:1049B000882ED0914B02DD2309F4A2C010924B0245
:1049C000E0912A03F0912B037F012EE0E20EF11C0F
:1049D00040E0CBEF2AEFC22ED12C51915B3F81F00A
:1049E000652F70E0282D392F8517D0F1261B370B46
:1049F0002E313105DCF19F0121503109D901CC93D1
:104A0000EE15FF0551F740934B02911002C0411182
:104A100079C010924A02A0912A03B0912B032091F1
:104A20004B02E8E4F3E090E04191E80139918E0116
:104A3000431751F04C914B3FD9F48C93AF01415047
:104A40005109EA01388321E01196D3E0E635FD07EC
:104A500059F720934B0290934A0258C080E09BCFB5
:104A6000D601A61BB70B2A0F3B1FC2CF4D2FC8CFB5
:104A700091E0EACF9170892B09F459C080914D02E1
:104A800090914E028130984780F01092820360919D
:104A90007C0370917D0380917E0390917F030E943F
:104AA000631910924E0210924D0280914D02909126
:104AB0004E02019690934E0280934D02892DDF9114
:104AC000CF911F910F91FF90EF90DF90CF90BF900B
:104AD000AF909F908F9008950E94A50C2EC0892BB7
:104AE00069F310924E0210924D0260917C03709116
:104AF0007D0380917E0390917F030E946319DECF36
:104B0000911087CF90914A02911183CF80914D02ED
:104B100090914E0220918203222309F3009709F01D
:104B2000A9CF0E949C0C0E94990C0E94960CC091E7
:104B30004C02CC2389F20E94990C81E0C827C093D3
:104B40004C029CCFCDB7DEB7C955D1090FB6F8944A
:104B5000DEBF0FBECDBF84B7877F84BF0FB6F8948A
:104B6000A895809160008861809360001092600039
:104B70000FBE80E890E00FB6F894809361009093A8
:104B800061000FBE85B7806885BF85B7806885BF27
:104B90000E9470040E943D058091E2008460809331
:104BA000E20078948091AA038823A1F01091E90093
:104BB0001F709091EC00892F817090FD80E8182B78
:104BC0001092E9008091E80083FD0E94A7131F70F6
:104BD0001093E90082E084BD93E095BD9AEF97BD04
:104BE00080936E000E94160F90E0909314018093C2
:104BF00013010E94AB0C0E94BA0CA4E3B3E016E5CB
:104C0000E12E13E0F12EE8E4F3E011921D92EE168E
:104C1000FF06D9F78EE090E00E941A2B80932A03BA
:104C200090932B03FC010E962BEF21938E179F0779
:104C3000E1F790E080E00E94E02A8F3E9E4F11F065
:104C40000E944E0E8CE090E00E94D22A90E0B0E0EC
:104C5000A0E080932C0390932D03A0932E03B09398
:104C60002F0389EA8093800089E080938100249853
:104C70002C983F988AB18F7C8AB96E98479A8BB1ED
:104C800080638BB9769A8FE090E00E94DA2A609375
:104C90003003709331038093320390933303677032
:104CA0004FEF649FB00111247595679575956795D1
:104CB0007727709389006093880070938B006093CE
:104CC0008A0070938D0060938C000E947D0D90E0AF
:104CD00080E00E94E02A8F3E9E4F11F00E944E0E0F
:104CE00082E090E00E94D22A80936D030E94F70D2B
:104CF000909343038093420383E090E00E94D22A82
:104D0000682F70E090E080E00E9488138091440357
:104D1000811136C090E080E00E94E02A8F3E9E4FD5
:104D200021F00E944E0E0E943F0E88E090E00E940B
:104D3000DA2A60935C0370935D0380935E03909323
:104D40005F036E7F71F40E943F0E88E090E00E9446
:104D5000DA2A60935C0370935D0380935E03909303
:104D60005F030E949A091092620380915C0380FFA6
:104D700004C060E086950E94181881E08093440387
:104D800060917C0370917D0380917E0390917F03FD
:104D90000E94631985E191E0909346038093450357
:104DA000F1E4CF2ED12CCC0EDD1E22E0C20ED11CA0
:104DB000A9EFAA2EA5E0BA2E8091AA03853009F4A6
:104DC000E8C00E948124AEE6B3E0E8E4F3E010E03E
:104DD00000E0302F81912D91281709F446C190E011
:104DE000992493942827422F492109F439C16196C7
:104DF0009FAF619762963FAF6297892191E009F476
:104E000090E063969FAF63970E944B138160782F69
:104E100065969FAF8EAF659761964FAD619762962D
:104E20005FAD629763966FAD639765968FAD65973B
:104E30000E94C023F801E259FC4F8081982690829D
:104E400080916203882309F441C080916103E0915D
:104E50005C03E695E81BE0935803823009F02CC10F
:104E6000F0E0E95FF94FE4910E2F10E0E5EC8E2EB3
:104E7000E1E19E2E80915903882389F01092590315
:104E80000E944B13980120953095820F931F9093A9
:104E900057038093560310925B0310925A0380913C
:104EA0005603909157030E94A8078017910770F04E
:104EB000E0915603F09157030E0F1F1F10935703F5
:104EC0000093560386E593E0F401099580916A0307
:104ED00090916B030E94A8079C019091690399230C
:104EE00019F02431310578F0209165039090660324
:104EF0001091670300916803211137C1812F89291F
:104F0000802B09F023C20E94890990916C038917B4
:104F100021F00E94890980936C038091AA03843058
:104F200009F04ACF8093E9008091E80082FF44CFE6
:104F30008091E80090E085FF06C00E948F048823DE
:104F400009F477C191E08091E8008B778093E800C5
:104F5000992309F431CF1981111187C180918203FE
:104F6000882309F49DC11092820381E0809381031C
:104F700022961FAE229723961FAE23978EEF24967C
:104F80008FAF249763E0CE018F5B9F4F0E9467062F
:104F900013CF8091AA03843009F441C010924703D3
:104FA00088E190E020E40FB6F894A8958093600023
:104FB0000FBE2093600010926203809185038111DF
:104FC00017C081E08093850380915C03982F9170D6
:104FD000909384038E7F80935C034FEF80E792E091
:104FE000415080409040E1F700C000000E948D0FCA
:104FF00083B7817F846083BF83B7816083BF7894E8
:10500000889583B78E7F83BF0FB6F894A89580915B
:105010006000886180936000109260000FBE8091F4
:10502000A903882309F4C8CE0E94160F90E090933C
:105030001401809313010E94AB0C0E94BA0CE8E4A7
:10504000F3E01192EE16FF06E1F70E948124E8E4F6
:10505000F3E08191811164C1EE16FF06D1F7ACCE69
:105060009F5F990C963009F0BECE0F5F1F4F0E3038
:10507000110509F0AECE8FEF66968FAF66976796F3
:105080008FAF679768961FAE68970E944B13816039
:10509000782F6A969FAF8EAF6A9766964FAD6697E8
:1050A00067965FAD679768966FAD68976A968FADA4
:1050B0006A970E94C023C4CE863059F4F0E0EC5FBA
:1050C000F94FE4910E2F10E079ED872E71E1972EC4
:1050D000D1CE893061F4E695F0E0EF5FF94FE491CD
:1050E0000E2F10E06BE3862E60E1962EC3CE8F303C
:1050F00061F4E695F0E0E250FA4FE4910E2F10E0F3
:1051000055E6852E50E1952EB5CE853159F4F0E067
:10511000E550FA4FE4910E2F10E044ED842E40E16B
:10512000942EA8CE08EE13E094E2892E91E1992EF8
:10513000883109F49FCE833241F4F5010591149131
:105140003AE6832E31E1932E95CE04EF11E022E072
:10515000822E20E1922E843209F48CCE00ED17E0ED
:1051600083E6882E86E0982E85CE9F3F19F09F5FBC
:1051700090936903121624F40E942007809365031C
:105180008091650387FF05C00E9420078195809369
:105190006503191424F40E9420078093660380910C
:1051A000660387FF05C00E942007819580936603F0
:1051B000309165033323A1F020916603222381F00F
:1051C00045EB3403C0011124992359F190936503F1
:1051D00045EB240390011124332339F13093660306
:1051E000111624F40E94FE068093670380916703E2
:1051F00087FF05C00E94FE06819580936703101605
:1052000024F40E94FE06809368038091680387FF60
:1052100005C00E94FE068195809368030E94571383
:1052200072CE81E080936503D3CF81E080936603E3
:10523000D7CF00E410E0CE0101964C018091E80048
:1052400085FD0AC08091E8008B778093E8000E947A
:105250008F04882399F376CE8091F100F401819335
:105260004F010150110951F76DCE1130C9F422964A
:105270001FAE229723961FAF23978CE0E0E2F1E068
:10528000D60101900D928A95E1F78EEF60968FAF6F
:1052900060976FE0CE018F5B9F4F0E9467068CCDB9
:1052A000809181038823D1F1123041F01330F9F05D
:1052B00081E022968FAF229761E065CE60917C03FA
:1052C00070917D0380917E0390917F030E94D207AD
:1052D00022961FAE229723961FAF239724968FAF57
:1052E00024978EEF25968FAF259764E04CCE8A8168
:1052F000813041F0882341F08230D1F681E0809303
:10530000800302C01092800322961FAE229783E092
:1053100023968FAF239780918003E0CF8FEFC9CF83
:1053200080E189BD82E189BD09B400FEFDCF809195
:10533000D8008F7D8093D8008091E00082608093B8
:10534000E0008091E00081FDFCCF36CD9F3F09F069
:105350000ECF1FCF1F921FB61F9211248F939F93C2
:10536000AF93BF9380914703811113C080912503B0
:1053700090912603A0912703B09128034196A11D87
:10538000B11D8093250390932603A0932703B09328
:105390002803BF91AF919F918F911F901FBE1F90C7
:1053A00018951092B9008CE08093B8000895EF92A0
:1053B000FF920F931F93CF93DF93182FEB0110925F
:1053C000BC0084EA8093BC000E944B137C01809156
:1053D000BC0087FF27C08091B900887F883029F002
:1053E0008091B900887F8031D9F51093BB0084E8A3
:1053F0008093BC000E944B138C018091BC0087FFFE
:1054000024C02091B900287F90E080E02831B1F0DD
:1054100081E090E0203411F490E080E09195819556
:1054200091090CC0CF3FDC0791F20E944B138E19FB
:105430009F098C179D0758F28EEF9FEFDF91CF9158
:105440001F910F91FF90EF900895CF3FDC07A9F2D5
:105450000E944B13801B910B8C179D0770F2ECCFB1
:105460008FEF9FEFEBCF0F931F93CF93DF93EB0162
:105470008093BB0084E88093BC000E944B138C0196
:105480008091BC0087FF11C02091B900287F81E086
:1054900090E0283211F490E080E091958195910997
:1054A000DF91CF911F910F910895CF3FDC0741F31A
:1054B0000E944B13801B910B8C179D0708F38EEFF6
:1054C0009FEFEECF0F931F93CF93DF93EC0184E810
:1054D0008093BC000E944B138C018091BC0087FF1D
:1054E00008C08091BB0090E0DF91CF911F910F9198
:1054F0000895CF3FDC0789F30E944B13801B910B6B
:105500008C179D0750F38EEF9FEFEECF84E98093C9
:10551000BC00089587FB082E062687FD819567FD50
:1055200061950E94C62A0EF4919507FC8195089515
:10553000AA1BBB1B51E107C0AA1FBB1FA617B707B9
:1055400010F0A61BB70B881F991F5A95A9F78095D5
:105550009095BC01CD01089597FB072E16F4009499
:1055600007D077FD09D00E94982A07FC05D03EF4A9
:10557000909581959F4F0895709561957F4F0895FF
:10558000EE0FFF1F0590F491E02D0994991B79E02F
:1055900004C0991F961708F0961B881F7A95C9F7C3
:1055A00080950895F999FECF92BD81BDF89A99270B
:1055B00080B50895A6E1B0E044E050E00C940C2BD7
:1055C000A8E1B0E042E050E00C940C2B262FF999B2
:1055D000FECF92BD81BDF89A019700B4021639F052
:1055E0001FBA20BD0FB6F894FA9AF99A0FBE089523
:1055F0000396272F0E94E72A0E94E62A252F0E9461
:10560000E72A242F0C94E72A0196272F0E94E72AE5
:105610000C94E62ADC01CB01FC01F999FECF06C00F
:10562000F2BDE1BDF89A319600B40D924150504060
:10563000B8F708950F931F93CF93DF9382309105AE
:1056400010F482E090E0E091B603F091B70330E00F
:1056500020E0B0E0A0E0309799F42115310509F47D
:1056600047C0281B390B24303105C0F58A819B8146
:105670006115710571F1FB0193838283FE0111C0F5
:10568000408151810281138148175907F8F048176A
:10569000590799F4109761F012960C93129713968C
:1056A0001C933296CF01DF91CF911F910F910895F6
:1056B0000093B6031093B703F4CF2115310519F009
:1056C0004217530718F49A01BD01EF01DF01F801F9
:1056D000C2CF9093B7038093B603D0CFFE01E20F01
:1056E000F31F819391932250310939832883DACFB4
:1056F0002091B4033091B503232B41F42091020192
:10570000309103013093B5032093B403209100013D
:10571000309101012115310541F42DB73EB740917B
:10572000040150910501241B350B4091B4035091A5
:10573000B5034217530708F0B5CF241B350B2817C4
:10574000390708F4AFCFBC016E5F7F4F26173707CC
:1057500008F4A8CF640F751F7093B5036093B4036A
:10576000FA01819391939ECFCF93DF930097E9F055
:10577000FC01329713821282C091B603D091B70315
:10578000DE0130E020E02097A1F420813181820FFA
:10579000931F2091B4033091B5032817390709F0FE
:1057A00067C0F093B503E093B403DF91CF91089500
:1057B000DA01AE17BF0708F040C012964D915C9118
:1057C00013979D014115510599F7D9011396FC9343
:1057D000EE9312974D915D91A40FB51FEA17FB0749
:1057E00079F4808191810296840F951FD9011196D9
:1057F0009C938E938281938113969C938E931297A0
:10580000B0E0A0E08A819B810097B9F5FE0181910B
:105810009191E80FF91F8091B4039091B5038E1711
:105820009F0719F6109761F51092B7031092B6030F
:10583000D093B503C093B403B8CFB383A2834081A0
:105840005181840F951FA817B90771F44E5F5F4F00
:105850008D919C911197480F591F51834083129647
:105860008D919C91938382832115310509F0ADCFF1
:10587000F093B703E093B60398CFDE01EC01C2CFFB
:1058800013961C921E921297D3CFFC0141505040A8
:1058900030F001900616D1F73197CF01089588278F
:1058A00099270895F894FFCF810C810C8A0C8A0CFB
:1058B0008C0C8A0C8A0C8A0C810C810C910C8A0C41
:1058C0008A0C910CC614EE145A16EE145A162115B1
:1058D00042155A160B161816821990199F19AE19EF
:1058E000D619DD19DB19591E591EB31EB31E1D1F13
:1058F000371F09218B1E791F4F205E205E20681DF7
:10590000761D7D1D821D871D8C1D911D961D9B1D65
:10591000A01DA51DE01BAA1DAF1DB21DB51DB81D04
:06592000BB1DBD1DC01DF2
:105926000000B803200001191A1B1C1D1E1F202190
:1059360022010220006406370D0C0D060DF40C0141
:1059460056795A67592F64615630350000010202B4
:1059560002020606060909090909090F0F0F0F0FAA
:105966000F151515181919191919191919191923AE
:1059760024000D010D020D030D040D050D000C0193
:105986000C020C030C040C050C000B010B020B03A0
:105996000B040B050B000A010A020A030A040A0596
:1059A6000A00090109020903090409050900080199
:1059B6000802080308040805080007010702070390
:1059C6000704070507000601060206030604060586
:1059D6000600050105020503050405050500040189
:1059E6000402040304040405040003010302030380
:1059F6000304030503000201020202030204020576
:105A06000200010101020103010401050100000178
:105A1600000200030004000500818283E200E90021
:105A2600EA00B500B600B700CD008301CC008A01BC
:105A36009201940121022302240225022602270252
:0A5A46002A02B300B4006F007000E4
:00000001FF
